:020000040000FA
:10000000400C0020E901000029020000CD010000A1
:100010002D0200002F02000031020000000000004D
:10002000000000000000000000000000330200009B
:100030003502000000000000370200003902000015
:100040003B0200003B0200003B0200003B020000BC
:100050003B0200003B0200003B0200003B020000AC
:100060003B0200003B0200003B0200003B0200009C
:100070003B0200003B0200003B0200003B0200008C
:100080003B0200003B0200003B0200003B0200007C
:100090003B0200003B0200003B0200003B0200006C
:1000A0003B0200003B0200003B0200003B0200005C
:1000B0003B0200003B0200003B0200003B0200004C
:1000C000F10800003B0200003B0200003B02000080
:1000D0003D0900003B0200003B0200003B02000023
:1000E0003B0200003B0200003B0200003B0200001C
:1000F0003B0200003B0200003B0200003B0200000C
:100100003B0200003B0200003B0200003B020000FB
:100110003B0200003B0200003B0200003B020000EB
:100120003B0200003B0200003B0200003B020000DB
:100130003B0200003B0200003B0200003B020000CB
:100140003B0200003B0200003B0200003B020000BB
:100150003B0200003B0200003B0200003B020000AB
:100160003B0200003B0200003B0200003B0200009B
:100170003B0200003B0200003B0200003B0200008B
:100180003B0200003B0200003B0200003B0200007B
:100190003B0200003B0200003B0200003B0200006B
:1001A0003B0200003B0200003B0200003B0200005B
:1001B0003B0200003B020000DFF80CD000F0BCF86E
:1001C0000048004707110000400C00200420714641
:1001D000084202D0EFF3098001E0EFF30880714696
:1001E000004A10472906000014484FF059010160E9
:1001F0004FF0160101604FF088010160104841681E
:1002000041F4804141600F48416841F00201416082
:10021000416841F0040141600B48804707484FF0B6
:100220000001016009480047FEE7FEE7FEE7FEE740
:10023000FEE7FEE7FEE7FEE7FEE7FEE7000100401F
:10024000000200400070004099070000B901000062
:100250002DE9F05F0546002092469B4688460646FB
:10026000814640241BE0284641464746224600F08E
:1002700053F853465A46C01A914110D311461846B6
:10028000224600F03AF82D1A67EB01084F46224645
:100290000120002100F031F817EB00094E41201E2B
:1002A000A4F10104DFDC484631462A464346BDE856
:1002B000F09F40EA01039B0703D009E008C9121F21
:1002C00008C0042AFAD203E011F8013B00F8013B10
:1002D000521EF9D27047D2B201E000F8012B491E3C
:1002E000FBD270470022F6E710B513460A460446D3
:1002F0001946FFF7F0FF204610BD202A04DB203A04
:1003000000FA02F1002070479140C2F1200320FA68
:1003100003F3194390407047202A04DB203A21FA66
:1003200002F00021704721FA02F3D040C2F120020E
:100330009140084319467047064C074D06E0E068B7
:1003400040F0010394E8070098471034AC42F6D31C
:10035000FFF736FF34120000541200004FF08040C7
:10036000D0F8401241F48031C0F8401270470000CC
:1003700000F01F0201219140034A800F02EB800030
:1003800002680A4302607047040200404FF0804157
:10039000D1F800220243C1F80022704710B500F0E6
:1003A000D7F90148006810BD0000002010B500F02A
:1003B000CFF90148006810BD0000002010B500F022
:1003C000C7F94FF08041D1F834024207134817D0E3
:1003D000D1F8342202F00702012A13D0D1F83422D6
:1003E00002F00702022A10D0D1F8342202F00702EC
:1003F000032A0DD0D1F8341201F0070104290AD0E4
:10040000006810BD0068400810BD0068800810BD7D
:100410000068C00810BD0068000910BD0000002081
:1004200010B500F095F94FF08041D1F8340210F08A
:10043000700F144817D0D1F83422C2F30212012AE7
:1004400013D0D1F83422C2F30212022A10D0D1F80C
:100450003422C2F30212032A0DD0D1F83412C1F3B0
:10046000021104290AD0006810BD0068400810BDC0
:100470000068800810BD0068C00810BD0068000951
:1004800010BD00000000002008B510A10020096880
:1004900000914FF08041D1F8401211F4A02F13D1F8
:1004A0000B488A0310D4C1F30800C1F38132094B11
:1004B000801C1DF80220C1F344215843491C11FB44
:1004C00002F1B0FBF1F0C00008BD0000010202041F
:1004D000001BB700C0C62D002DE9F0414FF080444D
:1004E0000746D4F850020E4600F01005D4F800027A
:1004F00040F00400C4F80002102004F5007400F07D
:1005000051F8206940F007002061206A20F00F00B8
:1005100030432062206920F0070038432061A4F5B1
:10052000007400F015F9002D05D1D4F8000220F078
:100530000400C4F80002BDE8F081000070B510F4BA
:100540007F3F13D0C0F38143022B22D06FEA904447
:10055000A40721D0124C04EB83031C68C0F3872549
:10056000C0F34416B540AC4314431C60420E52071E
:100570000ED00B4BC0F30172103B03EB82021368E9
:10058000C0F34264C0F304508440A3430B431360A0
:1005900070BD034B0C33E0E7014B1033DDE7000087
:1005A0002002004030B5012405460849A20705E0B5
:1005B000081EA1F1010101DC002404E0D2F8503250
:1005C00035EA0300F4D1204630BD000080F520005C
:1005D00010B5094C01221146204600F00FF8012207
:1005E0000221204600F00AF820460122BDE8104012
:1005F000042100F003B80000C0410040F0B5002322
:100600000127032507FA03F48C4309D106685C002F
:1006100005FA04FC26EA0C0602FA04F426430660F6
:100620005B1C102BEED3F0BD044603A000F014FBBE
:10063000204600F073FDFEE7496E20486172642099
:100640004661756C742048616E646C65720A0000C6
:1006500000F01F02012191404009800000F1E020DC
:10066000C0F800117047000070B5592084071621AA
:100670008822C4F80001C4F80011C4F80021D4F89D
:100680000031002BF5D04FF04020D0F8401121F080
:10069000F001C0F840110F20FFF778FE1B20FFF794
:1006A00081FFFFF75BFED4F8400217490840174965
:1006B0000843C4F84002042004F5E274FFF772FF17
:1006C00000210220FFF708FF112020670220FFF71A
:1006D0004FFE0120FFF74CFE0D4D2846FFF748FE68
:1006E0000C4E3046FFF744FE002211462846FFF725
:1006F00025FF002211463046FFF720FF00F028F8C2
:10070000002044F8C40C70BD000070EF1E420800C9
:100710000200805E103D80570121044A814002EBB7
:10072000106002680A438A43026070470800004074
:1007300006498A691202FCD408600A2804D1886933
:100740000002FCD40D200860704700000000074044
:1007500010B5FFF799FE0E4A4FF080439060D3F832
:10076000101201F00701022903D002F10C0050F829
:100770002100D3F8201201F00F01491CB0FBF1F069
:100780000449106008444900B0FBF1F0506010BD0E
:100790000000002020A107001A48016841F4700100
:1007A00001601948C16C21F00F0141F00801C164DA
:1007B0004FF08040D0F8981241F48021C0F8981290
:1007C000D0F8081241F00201C0F808120F49D1F820
:1007D000042102F0F732C1F80421D1F8082102F017
:1007E000F732C1F80821D0F8081221F00201C0F850
:1007F00008124FF04020D0F8401121F0F001C0F86D
:100800004011704788ED00E000C000400010044037
:1008100010B50A4C4FF47A724FF00061204600F098
:100820004BF8206840F0005020602020FFF710FFB8
:10083000206840F08040206010BD000000000540AE
:1008400010B588B00446202217496846FFF731FDED
:10085000164A174B9003944204D1D0F81402C0F307
:10086000022110E09C4204D1D0F81402C0F30231FE
:1008700009E01049D0F814028C4202D1C0F30241C1
:1008800001E0C0F30251022903D05DF8210008B055
:1008900010BD944201D09C4202D1FFF78FFDF6E7D4
:1008A000FFF7BEFDF3E70000F41100000000054073
:1008B000000105400010054070B516460D4604467F
:1008C000FFF7BEFF0023B6EB500F01D9022206E06E
:1008D000B0FBF6F2130E02D0591CB2FBF1F21D432D
:1008E000256062605B1C5A43B0FBF2F070BD0000F3
:1008F0000C488168C1F30001002911D001218160F9
:1009000009490888421C0A80B0F57A7F08D3002084
:1009100008804A68501C4860044905A000F09CB952
:100920007047000000000540300000201412000055
:100930002573203A202534640D0A00001249C86945
:10094000C205124809D40BE00A68B0F80034C2545A
:10095000B0F80024521CA0F800248A695204F3D590
:10096000CA69D20609D470470A68B0F80034C25484
:10097000B0F80024521CA0F800248A695204F3D570
:10098000012180F802147047000007403800002061
:1009900010B54FF08040C16B21F47F01C163C16B82
:1009A00041F4CC01C1631E48FFF7B6FE1D4C4FF465
:1009B000E131204600F0A2F81421204600F02AF987
:1009C000A06820F01000A060A06840F02000A060A7
:1009D000606840F61101084360602420FFF738FE8C
:1009E00040F204411048FFF77DFCFFF7D7FC0146B9
:1009F0000EA000F031F9FFF7D9FC014612A000F07B
:100A00002BF9FFF7DBFC014615A000F025F9FFF7F5
:100A100007FD0146BDE8104018A000F01DB9000018
:100A20001000000400000740380000200D0A434C6D
:100A30004B5F47657443505546726571203A2025D7
:100A400038640D0A00000000434C4B5F4765744852
:100A5000434C4B46726571203A202538640D0A00DC
:100A6000434C4B5F47657450434C4B304672657145
:100A7000203A202538640D0A00000000434C4B5FEB
:100A800047657450434C4B3146726571203A2025BE
:100A900038640D0A0000000070B5124C124D94F835
:100AA000020448B970BD2868B4F800146054B4F862
:100AB0000014491CA4F80014A8694004F3D5B4F844
:100AC00000240A490AA000F0C7F8B4F80024054938
:100AD000284600F0A9F8BDE8704040F20441014802
:100AE000FFF700BC3800002000000740241200007F
:100AF0002573203A2025640D0A0000002DE9FF41EE
:100B000004463C480F4600250FC88DE80F003A49BF
:100B10002E464FF080408C4206D1D0F81412D0F807
:100B20002002C1F301652AE034498C4206D1D0F895
:100B30001412D0F82002C1F381652BE030498C42B9
:100B400008D1D0F81C12D0F83002C1F3016500F0D2
:100B50000F0621E02B498C4208D1D0F81C12D0F8A6
:100B60003002C1F38165C0F3031615E026498C42BB
:100B700008D1D0F81C12D0F83002C1F30175C0F3CF
:100B8000032609E021498C4206D1D0F81C12D0F886
:100B900030028D0FC0F30336002020630320E06095
:100BA000A0681B490840A060E846012D02D1FFF76C
:100BB0006BFC0190002F1AD058F82510761CB1FB61
:100BC000F6F000EB5700B0FBF7F0801EB0F5803F69
:100BD0000AD3B1FBF6F000EBC700B0FBF7F06FF003
:100BE000010101EB101001E040F040506062BDE8EF
:100BF000FF810000C4110000000007400010074002
:100C000000200740003007400040074000500740E8
:100C10000FFFF0FF026A22F0FF020A4302624168FE
:100C200041F4006141607047F0B50446002630464B
:100C30004FF080450CE0002302E05B1CAB4209D280
:100C4000A769FF00F9D5002E04D10B5C2360401C7E
:100C50009042F0D1F0BD00000FB4054B10B503A9D0
:100C6000044A029800F018F810BC5DF814FB00006C
:100C7000FB1000002C00002002E008C8121F08C171
:100C8000002AFAD170477047002001E001C1121F0D
:100C9000002AFBD1704700002DE9FF4F8DB00F46B1
:100CA0000546002606E025280BD0DDE90F12904707
:100CB0006D1C761C28780028F5D111B03046BDE8AF
:100CC000F08F0024A246A1460122EC4900E0044333
:100CD00015F8013F203B02FA03F00842F7D12878CB
:100CE0002A2810D06FF02F022878A0F130010929AE
:100CF00014D80AEB8A0102EB410144F0020400EB34
:100D0000010A6D1CF0E701CF5FEA000A03D544F445
:100D10000054CAF1000A44F002046D1C28782E2801
:100D200017D115F8010F44F004042A280ED06FF0F3
:100D30002F022878A0F1300109290AD809EB89018E
:100D400002EB410100EB01096D1CF2E757F8049B2F
:100D50006D1C28786C280FD006DC4C2817D068282A
:100D60000DD06A2814D104E0742810D07A280FD14D
:100D70000DE044F400140AE044F4801401E044F46B
:100D800040146978814202D104F580146D1C6D1CF9
:100D90002A786E2A1FD00CDC632A31D004DC002AAA
:100DA0008BD0582A11D1A3E0642A68D0692A0CD1CB
:100DB00065E0732A2ED004DC6F2A73D0702A04D128
:100DC0009BE0752A6FD0782A6ED01046DDE90F12AD
:100DD0009047761C50E1C4F30250022806D0032845
:100DE00009D0042801CF09D0066045E101CFF117F1
:100DF000C0E9006140E101CF06803DE106703BE1C2
:100E000017F8040B8DF8000000208DF80100EB4668
:100E1000012003E057F804BB4FF0FF3061074FF0AB
:100E2000000102D40DE008F10101884649450FDABE
:100E30008045F8DB1BF808100029F4D108E008F120
:100E4000010188468142FADB1BF808100029F6D11F
:100E5000DDE90F23AAEB08008146214600F036F9B0
:100E6000304400EB080604E0DDE90F121BF8010B2B
:100E70009047B8F10108F7D221464846F7E00A2129
:100E8000C4F302534FF0000B0891022B04D001CFA2
:100E9000C117032B09D00AE0FF1D27F00707F7E869
:100EA000020108E032E01FE020E000B2C117042B8D
:100EB00001D140B2C117031E71F1000307DA4FF0F0
:100EC000000CD0EB0C006CEB01012D2302E023059C
:100ED00004D52B238DF82430012303E0E30701D050
:100EE0002023F7E7984658E00A2110E010210EE091
:100EF00010204FF0000B08900CE010214FF0000B79
:100F000044F004044FF00809089103E008214FF071
:100F1000000B0891C4F30253022B04D001CF00212F
:100F2000032B06D006E0FF1D27F00707F7E80201B4
:100F300003E080B2042B00D1C0B24FF000082307B9
:100F40002BD5702A07D0DDF820C08CF0100C5CEA9D
:100F50000B0C05D00EE040238DF82430012308E06F
:100F600050EA010306D030238DF824308DF8252077
:100F700002239846DDF820C08CF0080C5CEA0B0CCC
:100F80000BD150EA010301D1630706D530238DF858
:100F900024304FF00108A9F10109582A04D038A2E1
:100FA0000B9208AA0A920BE03AA2F9E75B46089A6C
:100FB000FFF74EF90B9B9B5C0A9A521E0A92137024
:100FC00050EA0102F2D10A98ADEB000000F1200BCB
:100FD000600702D524F4803401E04FF00109D945BF
:100FE00002DDA9EB0B0000E0002000EB0B01414407
:100FF0000890AAEB010AE00306D4DDE90F2321469D
:10100000504600F063F806444FF0000908E009A9D3
:1010100011F80900DDE90F12904709F10109761C6A
:10102000C145F4DBE0030CD5DDE90F232146504632
:1010300000F04CF8064404E0DDE90F123020904740
:10104000761C0899481E08900029F5DC08E00A98EB
:101050000A990078491C0A91DDE90F129047761C25
:10106000BBF10001ABF1010BF1DC21465046DDE99B
:101070000F2300F019F806446D1C1BE60928010037
:1010800030313233343536373839616263646566FE
:1010900000000000303132333435363738394142C0
:1010A00043444546000000002DE9F0410446002578
:1010B0001E461746880404D405E039462020B04770
:1010C0006D1C641EF9D52846BDE8F0812DE9F0417C
:1010D000044600251E469046C80301D5302700E08F
:1010E0002027880404D505E041463846B0476D1CEA
:1010F000641EF9D52846BDE8F08110B50446FFF717
:1011000017FB204610BDFFF7AFFAFFF741FCFFF7D2
:101110005FFAFFF77DFBFFF7BFFCFCE710B5044665
:10112000016810A0FFF798FD11A06168FFF794FD1A
:1011300012A0A168FFF790FD13A0E168FFF78CFDF6
:1011400014A02169FFF788FD15A06169FFF784FDF0
:1011500016A0A169FFF780FDE169BDE8104016A067
:10116000FFF77ABD723020203D20307825780A00C4
:10117000723120203D20307825780A0072322020FC
:101180003D20307825780A00723320203D203078C9
:1011900025780A00723132203D20307825780A0007
:1011A0006C7220203D20307825780A007063202062
:1011B0003D20307825780A00707372203D20307809
:1011C00025780A00001BB700000000000080000026
:1011D000001BB700001BB7000000000000800000EB
:1011E000001BB700001BB7000000000000800000DB
:1011F000001BB700001BB7000080000000000000CB
:1012000000000000000000001027000000000000A7
:10121000001BB700544D52305F49525148616E6413
:101220006C65720055415254305F50726F63657344
:10123000730000005412000000000020380000007D
:10124000780C00008C12000038000020080C000010
:10125000880C0000001BB7000C000000001BB7004A
:10126000001BB700008000000000000010270000F5
:10127000000000000000000000000000001BB7009C
:0C12800000000000000000000000000062
:04000005000001E90D
:00000001FF
